{
    "contractName": "SpaceJunk",
    "abi": [
        {
            "inputs": [],
            "stateMutability": "nonpayable",
            "type": "constructor"
        },
        {
            "anonymous": false,
            "inputs": [
                {
                    "indexed": true,
                    "internalType": "address",
                    "name": "owner",
                    "type": "address"
                },
                {
                    "indexed": true,
                    "internalType": "address",
                    "name": "approved",
                    "type": "address"
                },
                {
                    "indexed": true,
                    "internalType": "uint256",
                    "name": "tokenId",
                    "type": "uint256"
                }
            ],
            "name": "Approval",
            "type": "event"
        },
        {
            "anonymous": false,
            "inputs": [
                {
                    "indexed": true,
                    "internalType": "address",
                    "name": "owner",
                    "type": "address"
                },
                {
                    "indexed": true,
                    "internalType": "address",
                    "name": "operator",
                    "type": "address"
                },
                {
                    "indexed": false,
                    "internalType": "bool",
                    "name": "approved",
                    "type": "bool"
                }
            ],
            "name": "ApprovalForAll",
            "type": "event"
        },
        {
            "anonymous": false,
            "inputs": [
                {
                    "indexed": true,
                    "internalType": "address",
                    "name": "from",
                    "type": "address"
                },
                {
                    "indexed": true,
                    "internalType": "address",
                    "name": "to",
                    "type": "address"
                },
                {
                    "indexed": true,
                    "internalType": "uint256",
                    "name": "tokenId",
                    "type": "uint256"
                }
            ],
            "name": "Transfer",
            "type": "event"
        },
        {
            "inputs": [
                {
                    "internalType": "address",
                    "name": "to",
                    "type": "address"
                },
                {
                    "internalType": "uint256",
                    "name": "tokenId",
                    "type": "uint256"
                }
            ],
            "name": "approve",
            "outputs": [],
            "stateMutability": "nonpayable",
            "type": "function"
        },
        {
            "inputs": [
                {
                    "internalType": "address",
                    "name": "owner",
                    "type": "address"
                }
            ],
            "name": "balanceOf",
            "outputs": [
                {
                    "internalType": "uint256",
                    "name": "",
                    "type": "uint256"
                }
            ],
            "stateMutability": "view",
            "type": "function"
        },
        {
            "inputs": [
                {
                    "internalType": "address",
                    "name": "player",
                    "type": "address"
                },
                {
                    "internalType": "string",
                    "name": "mytokenURI",
                    "type": "string"
                }
            ],
            "name": "create",
            "outputs": [
                {
                    "internalType": "uint256",
                    "name": "",
                    "type": "uint256"
                }
            ],
            "stateMutability": "nonpayable",
            "type": "function"
        },
        {
            "inputs": [
                {
                    "internalType": "uint256",
                    "name": "tokenId",
                    "type": "uint256"
                }
            ],
            "name": "getApproved",
            "outputs": [
                {
                    "internalType": "address",
                    "name": "",
                    "type": "address"
                }
            ],
            "stateMutability": "view",
            "type": "function"
        },
        {
            "inputs": [
                {
                    "internalType": "address",
                    "name": "owner",
                    "type": "address"
                },
                {
                    "internalType": "address",
                    "name": "operator",
                    "type": "address"
                }
            ],
            "name": "isApprovedForAll",
            "outputs": [
                {
                    "internalType": "bool",
                    "name": "",
                    "type": "bool"
                }
            ],
            "stateMutability": "view",
            "type": "function"
        },
        {
            "inputs": [],
            "name": "name",
            "outputs": [
                {
                    "internalType": "string",
                    "name": "",
                    "type": "string"
                }
            ],
            "stateMutability": "view",
            "type": "function"
        },
        {
            "inputs": [
                {
                    "internalType": "uint256",
                    "name": "tokenId",
                    "type": "uint256"
                }
            ],
            "name": "ownerOf",
            "outputs": [
                {
                    "internalType": "address",
                    "name": "",
                    "type": "address"
                }
            ],
            "stateMutability": "view",
            "type": "function"
        },
        {
            "inputs": [
                {
                    "internalType": "address",
                    "name": "from",
                    "type": "address"
                },
                {
                    "internalType": "address",
                    "name": "to",
                    "type": "address"
                },
                {
                    "internalType": "uint256",
                    "name": "tokenId",
                    "type": "uint256"
                }
            ],
            "name": "safeTransferFrom",
            "outputs": [],
            "stateMutability": "nonpayable",
            "type": "function"
        },
        {
            "inputs": [
                {
                    "internalType": "address",
                    "name": "from",
                    "type": "address"
                },
                {
                    "internalType": "address",
                    "name": "to",
                    "type": "address"
                },
                {
                    "internalType": "uint256",
                    "name": "tokenId",
                    "type": "uint256"
                },
                {
                    "internalType": "bytes",
                    "name": "_data",
                    "type": "bytes"
                }
            ],
            "name": "safeTransferFrom",
            "outputs": [],
            "stateMutability": "nonpayable",
            "type": "function"
        },
        {
            "inputs": [
                {
                    "internalType": "address",
                    "name": "operator",
                    "type": "address"
                },
                {
                    "internalType": "bool",
                    "name": "approved",
                    "type": "bool"
                }
            ],
            "name": "setApprovalForAll",
            "outputs": [],
            "stateMutability": "nonpayable",
            "type": "function"
        },
        {
            "inputs": [
                {
                    "internalType": "bytes4",
                    "name": "interfaceId",
                    "type": "bytes4"
                }
            ],
            "name": "supportsInterface",
            "outputs": [
                {
                    "internalType": "bool",
                    "name": "",
                    "type": "bool"
                }
            ],
            "stateMutability": "view",
            "type": "function"
        },
        {
            "inputs": [],
            "name": "symbol",
            "outputs": [
                {
                    "internalType": "string",
                    "name": "",
                    "type": "string"
                }
            ],
            "stateMutability": "view",
            "type": "function"
        },
        {
            "inputs": [
                {
                    "internalType": "uint256",
                    "name": "tokenId",
                    "type": "uint256"
                }
            ],
            "name": "tokenURI",
            "outputs": [
                {
                    "internalType": "string",
                    "name": "",
                    "type": "string"
                }
            ],
            "stateMutability": "view",
            "type": "function"
        },
        {
            "inputs": [
                {
                    "internalType": "address",
                    "name": "from",
                    "type": "address"
                },
                {
                    "internalType": "address",
                    "name": "to",
                    "type": "address"
                },
                {
                    "internalType": "uint256",
                    "name": "tokenId",
                    "type": "uint256"
                }
            ],
            "name": "transferFrom",
            "outputs": [],
            "stateMutability": "nonpayable",
            "type": "function"
        }
    ],
    "bytecode": "60806040523480156200001157600080fd5b50604080518082018252600981526853706163654a756e6b60b81b60208083019182528351808501909452600484526353504a4b60e01b9084015281519192916200005f916000916200007e565b508051620000759060019060208401906200007e565b50505062000161565b8280546200008c9062000124565b90600052602060002090601f016020900481019282620000b05760008555620000fb565b82601f10620000cb57805160ff1916838001178555620000fb565b82800160010185558215620000fb579182015b82811115620000fb578251825591602001919060010190620000de565b50620001099291506200010d565b5090565b5b808211156200010957600081556001016200010e565b6002810460018216806200013957607f821691505b602082108114156200015b57634e487b7160e01b600052602260045260246000fd5b50919050565b6113fa80620001716000396000f3fe608060405234801561001057600080fd5b50600436106100ea5760003560e01c806370a082311161008c578063a22cb46511610066578063a22cb465146101d6578063b88d4fde146101e9578063c87b56dd146101fc578063e985e9c51461020f576100ea565b806370a082311461019b57806395d89b41146101bb578063a15ab08d146101c3576100ea565b8063095ea7b3116100c8578063095ea7b31461014d57806323b872dd1461016257806342842e0e146101755780636352211e14610188576100ea565b806301ffc9a7146100ef57806306fdde0314610118578063081812fc1461012d575b600080fd5b6101026100fd366004610e66565b610222565b60405161010f9190610f52565b60405180910390f35b61012061026a565b60405161010f9190610f5d565b61014061013b366004610e9e565b6102fc565b60405161010f9190610f01565b61016061015b366004610e3d565b610348565b005b610160610170366004610cf0565b6103e0565b610160610183366004610cf0565b610418565b610140610196366004610e9e565b610433565b6101ae6101a9366004610c9d565b610468565b60405161010f919061130c565b6101206104ac565b6101ae6101d1366004610dde565b6104bb565b6101606101e4366004610da4565b610506565b6101606101f7366004610d2b565b6105d4565b61012061020a366004610e9e565b610613565b61010261021d366004610cbe565b6106b5565b60006001600160e01b031982166380ac58cd60e01b148061025357506001600160e01b03198216635b5e139f60e01b145b806102625750610262826106e3565b90505b919050565b60606000805461027990611344565b80601f01602080910402602001604051908101604052809291908181526020018280546102a590611344565b80156102f25780601f106102c7576101008083540402835291602001916102f2565b820191906000526020600020905b8154815290600101906020018083116102d557829003601f168201915b5050505050905090565b6000610307826106fc565b61032c5760405162461bcd60e51b8152600401610323906111e5565b60405180910390fd5b506000908152600460205260409020546001600160a01b031690565b600061035382610433565b9050806001600160a01b0316836001600160a01b031614156103875760405162461bcd60e51b81526004016103239061127a565b806001600160a01b0316610399610719565b6001600160a01b031614806103b557506103b58161021d610719565b6103d15760405162461bcd60e51b8152600401610323906110c0565b6103db838361071d565b505050565b6103f16103eb610719565b8261078b565b61040d5760405162461bcd60e51b8152600401610323906112bb565b6103db838383610810565b6103db838383604051806020016040528060008152506105d4565b6000818152600260205260408120546001600160a01b0316806102625760405162461bcd60e51b815260040161032390611167565b60006001600160a01b0382166104905760405162461bcd60e51b81526004016103239061111d565b506001600160a01b031660009081526003602052604090205490565b60606001805461027990611344565b60006104c7600661093d565b60006104d36006610946565b90506104df848261094a565b600081815260076020908152604090912084516104fe92860190610b7d565b509392505050565b61050e610719565b6001600160a01b0316826001600160a01b0316141561053f5760405162461bcd60e51b81526004016103239061103d565b806005600061054c610719565b6001600160a01b03908116825260208083019390935260409182016000908120918716808252919093529120805460ff191692151592909217909155610590610719565b6001600160a01b03167f17307eab39ab6107e8899845ad3d59bd9653f200f220920489ca2b5937696c31836040516105c89190610f52565b60405180910390a35050565b6105e56105df610719565b8361078b565b6106015760405162461bcd60e51b8152600401610323906112bb565b61060d84848484610a29565b50505050565b600081815260076020526040902080546060919061063090611344565b80601f016020809104026020016040519081016040528092919081815260200182805461065c90611344565b80156106a95780601f1061067e576101008083540402835291602001916106a9565b820191906000526020600020905b81548152906001019060200180831161068c57829003601f168201915b50505050509050919050565b6001600160a01b03918216600090815260056020908152604080832093909416825291909152205460ff1690565b6001600160e01b031981166301ffc9a760e01b14919050565b6000908152600260205260409020546001600160a01b0316151590565b3390565b600081815260046020526040902080546001600160a01b0319166001600160a01b038416908117909155819061075282610433565b6001600160a01b03167f8c5be1e5ebec7d5bd14f71427d1e84f3dd0314c0f7b2291e5b200ac8c7c3b92560405160405180910390a45050565b6000610796826106fc565b6107b25760405162461bcd60e51b815260040161032390611074565b60006107bd83610433565b9050806001600160a01b0316846001600160a01b031614806107f85750836001600160a01b03166107ed846102fc565b6001600160a01b0316145b80610808575061080881856106b5565b949350505050565b826001600160a01b031661082382610433565b6001600160a01b0316146108495760405162461bcd60e51b815260040161032390611231565b6001600160a01b03821661086f5760405162461bcd60e51b815260040161032390610ff9565b61087a8383836103db565b61088560008261071d565b6001600160a01b03831660009081526003602052604081208054600192906108ae90849061132d565b90915550506001600160a01b03821660009081526003602052604081208054600192906108dc908490611315565b909155505060008181526002602052604080822080546001600160a01b0319166001600160a01b0386811691821790925591518493918716917fddf252ad1be2c89b69c2b068fc378daa952ba7f163c4a11628f55a4df523b3ef91a4505050565b80546001019055565b5490565b6001600160a01b0382166109705760405162461bcd60e51b8152600401610323906111b0565b610979816106fc565b156109965760405162461bcd60e51b815260040161032390610fc2565b6109a2600083836103db565b6001600160a01b03821660009081526003602052604081208054600192906109cb908490611315565b909155505060008181526002602052604080822080546001600160a01b0319166001600160a01b03861690811790915590518392907fddf252ad1be2c89b69c2b068fc378daa952ba7f163c4a11628f55a4df523b3ef908290a45050565b610a34848484610810565b610a4084848484610a5c565b61060d5760405162461bcd60e51b815260040161032390610f70565b6000610a70846001600160a01b0316610b77565b15610b6c57836001600160a01b031663150b7a02610a8c610719565b8786866040518563ffffffff1660e01b8152600401610aae9493929190610f15565b602060405180830381600087803b158015610ac857600080fd5b505af1925050508015610af8575060408051601f3d908101601f19168201909252610af591810190610e82565b60015b610b52573d808015610b26576040519150601f19603f3d011682016040523d82523d6000602084013e610b2b565b606091505b508051610b4a5760405162461bcd60e51b815260040161032390610f70565b805181602001fd5b6001600160e01b031916630a85bd0160e11b149050610808565b506001949350505050565b3b151590565b828054610b8990611344565b90600052602060002090601f016020900481019282610bab5760008555610bf1565b82601f10610bc457805160ff1916838001178555610bf1565b82800160010185558215610bf1579182015b82811115610bf1578251825591602001919060010190610bd6565b50610bfd929150610c01565b5090565b5b80821115610bfd5760008155600101610c02565b600067ffffffffffffffff80841115610c3157610c31611395565b604051601f8501601f191681016020018281118282101715610c5557610c55611395565b604052848152915081838501861015610c6d57600080fd5b8484602083013760006020868301015250509392505050565b80356001600160a01b038116811461026557600080fd5b600060208284031215610cae578081fd5b610cb782610c86565b9392505050565b60008060408385031215610cd0578081fd5b610cd983610c86565b9150610ce760208401610c86565b90509250929050565b600080600060608486031215610d04578081fd5b610d0d84610c86565b9250610d1b60208501610c86565b9150604084013590509250925092565b60008060008060808587031215610d40578081fd5b610d4985610c86565b9350610d5760208601610c86565b925060408501359150606085013567ffffffffffffffff811115610d79578182fd5b8501601f81018713610d89578182fd5b610d9887823560208401610c16565b91505092959194509250565b60008060408385031215610db6578182fd5b610dbf83610c86565b915060208301358015158114610dd3578182fd5b809150509250929050565b60008060408385031215610df0578182fd5b610df983610c86565b9150602083013567ffffffffffffffff811115610e14578182fd5b8301601f81018513610e24578182fd5b610e3385823560208401610c16565b9150509250929050565b60008060408385031215610e4f578182fd5b610e5883610c86565b946020939093013593505050565b600060208284031215610e77578081fd5b8135610cb7816113ab565b600060208284031215610e93578081fd5b8151610cb7816113ab565b600060208284031215610eaf578081fd5b5035919050565b60008151808452815b81811015610edb57602081850181015186830182015201610ebf565b81811115610eec5782602083870101525b50601f01601f19169290920160200192915050565b6001600160a01b0391909116815260200190565b6001600160a01b0385811682528416602082015260408101839052608060608201819052600090610f4890830184610eb6565b9695505050505050565b901515815260200190565b600060208252610cb76020830184610eb6565b60208082526032908201527f4552433732313a207472616e7366657220746f206e6f6e20455243373231526560408201527131b2b4bb32b91034b6b83632b6b2b73a32b960711b606082015260800190565b6020808252601c908201527f4552433732313a20746f6b656e20616c7265616479206d696e74656400000000604082015260600190565b60208082526024908201527f4552433732313a207472616e7366657220746f20746865207a65726f206164646040820152637265737360e01b606082015260800190565b60208082526019908201527f4552433732313a20617070726f766520746f2063616c6c657200000000000000604082015260600190565b6020808252602c908201527f4552433732313a206f70657261746f7220717565727920666f72206e6f6e657860408201526b34b9ba32b73a103a37b5b2b760a11b606082015260800190565b60208082526038908201527f4552433732313a20617070726f76652063616c6c6572206973206e6f74206f7760408201527f6e6572206e6f7220617070726f76656420666f7220616c6c0000000000000000606082015260800190565b6020808252602a908201527f4552433732313a2062616c616e636520717565727920666f7220746865207a65604082015269726f206164647265737360b01b606082015260800190565b60208082526029908201527f4552433732313a206f776e657220717565727920666f72206e6f6e657869737460408201526832b73a103a37b5b2b760b91b606082015260800190565b6020808252818101527f4552433732313a206d696e7420746f20746865207a65726f2061646472657373604082015260600190565b6020808252602c908201527f4552433732313a20617070726f76656420717565727920666f72206e6f6e657860408201526b34b9ba32b73a103a37b5b2b760a11b606082015260800190565b60208082526029908201527f4552433732313a207472616e73666572206f6620746f6b656e2074686174206960408201526839903737ba1037bbb760b91b606082015260800190565b60208082526021908201527f4552433732313a20617070726f76616c20746f2063757272656e74206f776e656040820152603960f91b606082015260800190565b60208082526031908201527f4552433732313a207472616e736665722063616c6c6572206973206e6f74206f6040820152701ddb995c881b9bdc88185c1c1c9bdd9959607a1b606082015260800190565b90815260200190565b600082198211156113285761132861137f565b500190565b60008282101561133f5761133f61137f565b500390565b60028104600182168061135857607f821691505b6020821081141561137957634e487b7160e01b600052602260045260246000fd5b50919050565b634e487b7160e01b600052601160045260246000fd5b634e487b7160e01b600052604160045260246000fd5b6001600160e01b0319811681146113c157600080fd5b5056fea26469706673582212203bd6336a60d43694b84daf8f882e5a6f3185c625ecbc78d5420a7ed5fb0a706364736f6c63430008000033",
    "sourcePath": "c:/Dev/spacejunk/contracts/SpaceNFT.sol",
    "compiler": {
        "name": "solc",
        "version": "0.8.0+commit.c7dfd78e"
    },
    "functionHashes": {
        "approve(address,uint256)": "095ea7b3",
        "balanceOf(address)": "70a08231",
        "create(address,string)": "a15ab08d",
        "getApproved(uint256)": "081812fc",
        "isApprovedForAll(address,address)": "e985e9c5",
        "name()": "06fdde03",
        "ownerOf(uint256)": "6352211e",
        "safeTransferFrom(address,address,uint256)": "42842e0e",
        "safeTransferFrom(address,address,uint256,bytes)": "b88d4fde",
        "setApprovalForAll(address,bool)": "a22cb465",
        "supportsInterface(bytes4)": "01ffc9a7",
        "symbol()": "95d89b41",
        "tokenURI(uint256)": "c87b56dd",
        "transferFrom(address,address,uint256)": "23b872dd"
    },
    "gasEstimates": {
        "creation": {
            "codeDepositCost": "1022800",
            "executionCost": "infinite",
            "totalCost": "infinite"
        },
        "external": {
            "approve(address,uint256)": "infinite",
            "balanceOf(address)": "1333",
            "create(address,string)": "infinite",
            "getApproved(uint256)": "2223",
            "isApprovedForAll(address,address)": "infinite",
            "name()": "infinite",
            "ownerOf(uint256)": "1366",
            "safeTransferFrom(address,address,uint256)": "infinite",
            "safeTransferFrom(address,address,uint256,bytes)": "infinite",
            "setApprovalForAll(address,bool)": "infinite",
            "supportsInterface(bytes4)": "604",
            "symbol()": "infinite",
            "tokenURI(uint256)": "infinite",
            "transferFrom(address,address,uint256)": "infinite"
        }
    }
}